{
  "_format": "hh-sol-artifact-1",
  "contractName": "MonoNFT",
  "sourceName": "contracts/Token.sol",
  "abi": [
    {
      "inputs": [
        {
          "internalType": "address",
          "name": "_marketplaceAddress",
          "type": "address"
        }
      ],
      "stateMutability": "nonpayable",
      "type": "constructor"
    },
    {
      "anonymous": false,
      "inputs": [
        {
          "indexed": true,
          "internalType": "address",
          "name": "owner",
          "type": "address"
        },
        {
          "indexed": true,
          "internalType": "address",
          "name": "approved",
          "type": "address"
        },
        {
          "indexed": true,
          "internalType": "uint256",
          "name": "tokenId",
          "type": "uint256"
        }
      ],
      "name": "Approval",
      "type": "event"
    },
    {
      "anonymous": false,
      "inputs": [
        {
          "indexed": true,
          "internalType": "address",
          "name": "owner",
          "type": "address"
        },
        {
          "indexed": true,
          "internalType": "address",
          "name": "operator",
          "type": "address"
        },
        {
          "indexed": false,
          "internalType": "bool",
          "name": "approved",
          "type": "bool"
        }
      ],
      "name": "ApprovalForAll",
      "type": "event"
    },
    {
      "anonymous": false,
      "inputs": [
        {
          "indexed": true,
          "internalType": "address",
          "name": "from",
          "type": "address"
        },
        {
          "indexed": true,
          "internalType": "address",
          "name": "to",
          "type": "address"
        },
        {
          "indexed": true,
          "internalType": "uint256",
          "name": "tokenId",
          "type": "uint256"
        }
      ],
      "name": "Transfer",
      "type": "event"
    },
    {
      "inputs": [
        {
          "internalType": "address",
          "name": "to",
          "type": "address"
        },
        {
          "internalType": "uint256",
          "name": "tokenId",
          "type": "uint256"
        }
      ],
      "name": "approve",
      "outputs": [],
      "stateMutability": "nonpayable",
      "type": "function"
    },
    {
      "inputs": [
        {
          "internalType": "address",
          "name": "owner",
          "type": "address"
        }
      ],
      "name": "balanceOf",
      "outputs": [
        {
          "internalType": "uint256",
          "name": "",
          "type": "uint256"
        }
      ],
      "stateMutability": "view",
      "type": "function"
    },
    {
      "inputs": [
        {
          "internalType": "uint256",
          "name": "tokenId",
          "type": "uint256"
        }
      ],
      "name": "getApproved",
      "outputs": [
        {
          "internalType": "address",
          "name": "",
          "type": "address"
        }
      ],
      "stateMutability": "view",
      "type": "function"
    },
    {
      "inputs": [
        {
          "internalType": "address",
          "name": "to",
          "type": "address"
        }
      ],
      "name": "giveAway",
      "outputs": [],
      "stateMutability": "nonpayable",
      "type": "function"
    },
    {
      "inputs": [
        {
          "internalType": "address",
          "name": "owner",
          "type": "address"
        },
        {
          "internalType": "address",
          "name": "operator",
          "type": "address"
        }
      ],
      "name": "isApprovedForAll",
      "outputs": [
        {
          "internalType": "bool",
          "name": "",
          "type": "bool"
        }
      ],
      "stateMutability": "view",
      "type": "function"
    },
    {
      "inputs": [],
      "name": "marketplaceAddress",
      "outputs": [
        {
          "internalType": "address",
          "name": "",
          "type": "address"
        }
      ],
      "stateMutability": "view",
      "type": "function"
    },
    {
      "inputs": [],
      "name": "name",
      "outputs": [
        {
          "internalType": "string",
          "name": "",
          "type": "string"
        }
      ],
      "stateMutability": "view",
      "type": "function"
    },
    {
      "inputs": [
        {
          "internalType": "uint256",
          "name": "tokenId",
          "type": "uint256"
        }
      ],
      "name": "ownerOf",
      "outputs": [
        {
          "internalType": "address",
          "name": "",
          "type": "address"
        }
      ],
      "stateMutability": "view",
      "type": "function"
    },
    {
      "inputs": [
        {
          "internalType": "address",
          "name": "from",
          "type": "address"
        },
        {
          "internalType": "address",
          "name": "to",
          "type": "address"
        },
        {
          "internalType": "uint256",
          "name": "tokenId",
          "type": "uint256"
        }
      ],
      "name": "safeTransferFrom",
      "outputs": [],
      "stateMutability": "nonpayable",
      "type": "function"
    },
    {
      "inputs": [
        {
          "internalType": "address",
          "name": "from",
          "type": "address"
        },
        {
          "internalType": "address",
          "name": "to",
          "type": "address"
        },
        {
          "internalType": "uint256",
          "name": "tokenId",
          "type": "uint256"
        },
        {
          "internalType": "bytes",
          "name": "data",
          "type": "bytes"
        }
      ],
      "name": "safeTransferFrom",
      "outputs": [],
      "stateMutability": "nonpayable",
      "type": "function"
    },
    {
      "inputs": [
        {
          "internalType": "address",
          "name": "operator",
          "type": "address"
        },
        {
          "internalType": "bool",
          "name": "approved",
          "type": "bool"
        }
      ],
      "name": "setApprovalForAll",
      "outputs": [],
      "stateMutability": "nonpayable",
      "type": "function"
    },
    {
      "inputs": [
        {
          "internalType": "bytes4",
          "name": "interfaceId",
          "type": "bytes4"
        }
      ],
      "name": "supportsInterface",
      "outputs": [
        {
          "internalType": "bool",
          "name": "",
          "type": "bool"
        }
      ],
      "stateMutability": "view",
      "type": "function"
    },
    {
      "inputs": [],
      "name": "symbol",
      "outputs": [
        {
          "internalType": "string",
          "name": "",
          "type": "string"
        }
      ],
      "stateMutability": "view",
      "type": "function"
    },
    {
      "inputs": [
        {
          "internalType": "uint256",
          "name": "index",
          "type": "uint256"
        }
      ],
      "name": "tokenByIndex",
      "outputs": [
        {
          "internalType": "uint256",
          "name": "",
          "type": "uint256"
        }
      ],
      "stateMutability": "view",
      "type": "function"
    },
    {
      "inputs": [
        {
          "internalType": "address",
          "name": "owner",
          "type": "address"
        },
        {
          "internalType": "uint256",
          "name": "index",
          "type": "uint256"
        }
      ],
      "name": "tokenOfOwnerByIndex",
      "outputs": [
        {
          "internalType": "uint256",
          "name": "",
          "type": "uint256"
        }
      ],
      "stateMutability": "view",
      "type": "function"
    },
    {
      "inputs": [
        {
          "internalType": "uint256",
          "name": "tokenId",
          "type": "uint256"
        }
      ],
      "name": "tokenURI",
      "outputs": [
        {
          "internalType": "string",
          "name": "",
          "type": "string"
        }
      ],
      "stateMutability": "view",
      "type": "function"
    },
    {
      "inputs": [],
      "name": "totalSupply",
      "outputs": [
        {
          "internalType": "uint256",
          "name": "",
          "type": "uint256"
        }
      ],
      "stateMutability": "view",
      "type": "function"
    },
    {
      "inputs": [
        {
          "internalType": "address",
          "name": "from",
          "type": "address"
        },
        {
          "internalType": "address",
          "name": "to",
          "type": "address"
        },
        {
          "internalType": "uint256",
          "name": "tokenId",
          "type": "uint256"
        }
      ],
      "name": "transferFrom",
      "outputs": [],
      "stateMutability": "nonpayable",
      "type": "function"
    }
  ],
  "bytecode": "0x60806040523480156200001157600080fd5b50604051620034de380380620034de833981810160405281019062000037919062000239565b6040518060400160405280600781526020017f4d6f6e6f4e4654000000000000000000000000000000000000000000000000008152506040518060400160405280600481526020017f4d4e4654000000000000000000000000000000000000000000000000000000008152508160009080519060200190620000bb9291906200011f565b508060019080519060200190620000d49291906200011f565b50505080600b60006101000a81548173ffffffffffffffffffffffffffffffffffffffff021916908373ffffffffffffffffffffffffffffffffffffffff16021790555050620002d0565b8280546200012d906200029a565b90600052602060002090601f0160209004810192826200015157600085556200019d565b82601f106200016c57805160ff19168380011785556200019d565b828001600101855582156200019d579182015b828111156200019c5782518255916020019190600101906200017f565b5b509050620001ac9190620001b0565b5090565b5b80821115620001cb576000816000905550600101620001b1565b5090565b600080fd5b600073ffffffffffffffffffffffffffffffffffffffff82169050919050565b60006200020182620001d4565b9050919050565b6200021381620001f4565b81146200021f57600080fd5b50565b600081519050620002338162000208565b92915050565b600060208284031215620002525762000251620001cf565b5b6000620002628482850162000222565b91505092915050565b7f4e487b7100000000000000000000000000000000000000000000000000000000600052602260045260246000fd5b60006002820490506001821680620002b357607f821691505b60208210811415620002ca57620002c96200026b565b5b50919050565b6131fe80620002e06000396000f3fe608060405234801561001057600080fd5b50600436106101165760003560e01c80636352211e116100a2578063a22cb46511610071578063a22cb46514610305578063b88d4fde14610321578063c87b56dd1461033d578063daa17f491461036d578063e985e9c51461038b57610116565b80636352211e1461026b57806370a082311461029b57806395d89b41146102cb5780639e240785146102e957610116565b806318160ddd116100e957806318160ddd146101b557806323b872dd146101d35780632f745c59146101ef57806342842e0e1461021f5780634f6ccce71461023b57610116565b806301ffc9a71461011b57806306fdde031461014b578063081812fc14610169578063095ea7b314610199575b600080fd5b610135600480360381019061013091906120fb565b6103bb565b6040516101429190612143565b60405180910390f35b6101536103cd565b60405161016091906121f7565b60405180910390f35b610183600480360381019061017e919061224f565b61045f565b60405161019091906122bd565b60405180910390f35b6101b360048036038101906101ae9190612304565b6104a5565b005b6101bd6105bd565b6040516101ca9190612353565b60405180910390f35b6101ed60048036038101906101e8919061236e565b6105ca565b005b61020960048036038101906102049190612304565b61062a565b6040516102169190612353565b60405180910390f35b6102396004803603810190610234919061236e565b6106cf565b005b6102556004803603810190610250919061224f565b6106ef565b6040516102629190612353565b60405180910390f35b6102856004803603810190610280919061224f565b610760565b60405161029291906122bd565b60405180910390f35b6102b560048036038101906102b091906123c1565b610812565b6040516102c29190612353565b60405180910390f35b6102d36108ca565b6040516102e091906121f7565b60405180910390f35b61030360048036038101906102fe91906123c1565b61095c565b005b61031f600480360381019061031a919061241a565b610a11565b005b61033b6004803603810190610336919061258f565b610a27565b005b6103576004803603810190610352919061224f565b610a89565b60405161036491906121f7565b60405180910390f35b610375610a9b565b60405161038291906122bd565b60405180910390f35b6103a560048036038101906103a09190612612565b610ac1565b6040516103b29190612143565b60405180910390f35b60006103c682610b55565b9050919050565b6060600080546103dc90612681565b80601f016020809104026020016040519081016040528092919081815260200182805461040890612681565b80156104555780601f1061042a57610100808354040283529160200191610455565b820191906000526020600020905b81548152906001019060200180831161043857829003601f168201915b5050505050905090565b600061046a82610bcf565b6004600083815260200190815260200160002060009054906101000a900473ffffffffffffffffffffffffffffffffffffffff169050919050565b60006104b082610760565b90508073ffffffffffffffffffffffffffffffffffffffff168373ffffffffffffffffffffffffffffffffffffffff161415610521576040517f08c379a000000000000000000000000000000000000000000000000000000000815260040161051890612725565b60405180910390fd5b8073ffffffffffffffffffffffffffffffffffffffff16610540610c1a565b73ffffffffffffffffffffffffffffffffffffffff16148061056f575061056e81610569610c1a565b610ac1565b5b6105ae576040517f08c379a00000000000000000000000000000000000000000000000000000000081526004016105a5906127b7565b60405180910390fd5b6105b88383610c22565b505050565b6000600980549050905090565b6105db6105d5610c1a565b82610cdb565b61061a576040517f08c379a000000000000000000000000000000000000000000000000000000000815260040161061190612849565b60405180910390fd5b610625838383610d70565b505050565b600061063583610812565b8210610676576040517f08c379a000000000000000000000000000000000000000000000000000000000815260040161066d906128db565b60405180910390fd5b600760008473ffffffffffffffffffffffffffffffffffffffff1673ffffffffffffffffffffffffffffffffffffffff168152602001908152602001600020600083815260200190815260200160002054905092915050565b6106ea83838360405180602001604052806000815250610a27565b505050565b60006106f96105bd565b821061073a576040517f08c379a00000000000000000000000000000000000000000000000000000000081526004016107319061296d565b60405180910390fd5b6009828154811061074e5761074d61298d565b5b90600052602060002001549050919050565b6000806002600084815260200190815260200160002060009054906101000a900473ffffffffffffffffffffffffffffffffffffffff169050600073ffffffffffffffffffffffffffffffffffffffff168173ffffffffffffffffffffffffffffffffffffffff161415610809576040517f08c379a000000000000000000000000000000000000000000000000000000000815260040161080090612a08565b60405180910390fd5b80915050919050565b60008073ffffffffffffffffffffffffffffffffffffffff168273ffffffffffffffffffffffffffffffffffffffff161415610883576040517f08c379a000000000000000000000000000000000000000000000000000000000815260040161087a90612a9a565b60405180910390fd5b600360008373ffffffffffffffffffffffffffffffffffffffff1673ffffffffffffffffffffffffffffffffffffffff168152602001908152602001600020549050919050565b6060600180546108d990612681565b80601f016020809104026020016040519081016040528092919081815260200182805461090590612681565b80156109525780601f1061092757610100808354040283529160200191610952565b820191906000526020600020905b81548152906001019060200180831161093557829003601f168201915b5050505050905090565b610966600c610fd7565b6000610972600c610fed565b905061097e8282610ffb565b6109a0816040518060600160405280603f815260200161318a603f9139611019565b6109cd600b60009054906101000a900473ffffffffffffffffffffffffffffffffffffffff166001610a11565b610a0d6040518060400160405280601581526020017f4d696e74656420746f6b656e20257320746f2025730000000000000000000000815250828461108d565b5050565b610a23610a1c610c1a565b838361112c565b5050565b610a38610a32610c1a565b83610cdb565b610a77576040517f08c379a0000000000000000000000000000000000000000000000000000000008152600401610a6e90612849565b60405180910390fd5b610a8384848484611299565b50505050565b6060610a94826112f5565b9050919050565b600b60009054906101000a900473ffffffffffffffffffffffffffffffffffffffff1681565b6000600560008473ffffffffffffffffffffffffffffffffffffffff1673ffffffffffffffffffffffffffffffffffffffff16815260200190815260200160002060008373ffffffffffffffffffffffffffffffffffffffff1673ffffffffffffffffffffffffffffffffffffffff16815260200190815260200160002060009054906101000a900460ff16905092915050565b60007f780e9d63000000000000000000000000000000000000000000000000000000007bffffffffffffffffffffffffffffffffffffffffffffffffffffffff1916827bffffffffffffffffffffffffffffffffffffffffffffffffffffffff19161480610bc85750610bc782611408565b5b9050919050565b610bd8816114ea565b610c17576040517f08c379a0000000000000000000000000000000000000000000000000000000008152600401610c0e90612a08565b60405180910390fd5b50565b600033905090565b816004600083815260200190815260200160002060006101000a81548173ffffffffffffffffffffffffffffffffffffffff021916908373ffffffffffffffffffffffffffffffffffffffff160217905550808273ffffffffffffffffffffffffffffffffffffffff16610c9583610760565b73ffffffffffffffffffffffffffffffffffffffff167f8c5be1e5ebec7d5bd14f71427d1e84f3dd0314c0f7b2291e5b200ac8c7c3b92560405160405180910390a45050565b600080610ce783610760565b90508073ffffffffffffffffffffffffffffffffffffffff168473ffffffffffffffffffffffffffffffffffffffff161480610d295750610d288185610ac1565b5b80610d6757508373ffffffffffffffffffffffffffffffffffffffff16610d4f8461045f565b73ffffffffffffffffffffffffffffffffffffffff16145b91505092915050565b8273ffffffffffffffffffffffffffffffffffffffff16610d9082610760565b73ffffffffffffffffffffffffffffffffffffffff1614610de6576040517f08c379a0000000000000000000000000000000000000000000000000000000008152600401610ddd90612b2c565b60405180910390fd5b600073ffffffffffffffffffffffffffffffffffffffff168273ffffffffffffffffffffffffffffffffffffffff161415610e56576040517f08c379a0000000000000000000000000000000000000000000000000000000008152600401610e4d90612bbe565b60405180910390fd5b610e61838383611556565b610e6c600082610c22565b6001600360008573ffffffffffffffffffffffffffffffffffffffff1673ffffffffffffffffffffffffffffffffffffffff1681526020019081526020016000206000828254610ebc9190612c0d565b925050819055506001600360008473ffffffffffffffffffffffffffffffffffffffff1673ffffffffffffffffffffffffffffffffffffffff1681526020019081526020016000206000828254610f139190612c41565b92505081905550816002600083815260200190815260200160002060006101000a81548173ffffffffffffffffffffffffffffffffffffffff021916908373ffffffffffffffffffffffffffffffffffffffff160217905550808273ffffffffffffffffffffffffffffffffffffffff168473ffffffffffffffffffffffffffffffffffffffff167fddf252ad1be2c89b69c2b068fc378daa952ba7f163c4a11628f55a4df523b3ef60405160405180910390a4610fd2838383611566565b505050565b6001816000016000828254019250508190555050565b600081600001549050919050565b61101582826040518060200160405280600081525061156b565b5050565b611022826114ea565b611061576040517f08c379a000000000000000000000000000000000000000000000000000000000815260040161105890612d09565b60405180910390fd5b80600660008481526020019081526020016000209080519060200190611088929190611fec565b505050565b6111278383836040516024016110a593929190612d29565b6040516020818303038152906040527f1c7ec448000000000000000000000000000000000000000000000000000000007bffffffffffffffffffffffffffffffffffffffffffffffffffffffff19166020820180517bffffffffffffffffffffffffffffffffffffffffffffffffffffffff83818316178352505050506115c6565b505050565b8173ffffffffffffffffffffffffffffffffffffffff168373ffffffffffffffffffffffffffffffffffffffff16141561119b576040517f08c379a000000000000000000000000000000000000000000000000000000000815260040161119290612db3565b60405180910390fd5b80600560008573ffffffffffffffffffffffffffffffffffffffff1673ffffffffffffffffffffffffffffffffffffffff16815260200190815260200160002060008473ffffffffffffffffffffffffffffffffffffffff1673ffffffffffffffffffffffffffffffffffffffff16815260200190815260200160002060006101000a81548160ff0219169083151502179055508173ffffffffffffffffffffffffffffffffffffffff168373ffffffffffffffffffffffffffffffffffffffff167f17307eab39ab6107e8899845ad3d59bd9653f200f220920489ca2b5937696c318360405161128c9190612143565b60405180910390a3505050565b6112a4848484610d70565b6112b0848484846115ef565b6112ef576040517f08c379a00000000000000000000000000000000000000000000000000000000081526004016112e690612e45565b60405180910390fd5b50505050565b606061130082610bcf565b600060066000848152602001908152602001600020805461132090612681565b80601f016020809104026020016040519081016040528092919081815260200182805461134c90612681565b80156113995780601f1061136e57610100808354040283529160200191611399565b820191906000526020600020905b81548152906001019060200180831161137c57829003601f168201915b5050505050905060006113aa611786565b90506000815114156113c0578192505050611403565b6000825111156113f55780826040516020016113dd929190612ea1565b60405160208183030381529060405292505050611403565b6113fe8461179d565b925050505b919050565b60007f80ac58cd000000000000000000000000000000000000000000000000000000007bffffffffffffffffffffffffffffffffffffffffffffffffffffffff1916827bffffffffffffffffffffffffffffffffffffffffffffffffffffffff191614806114d357507f5b5e139f000000000000000000000000000000000000000000000000000000007bffffffffffffffffffffffffffffffffffffffffffffffffffffffff1916827bffffffffffffffffffffffffffffffffffffffffffffffffffffffff1916145b806114e357506114e282611805565b5b9050919050565b60008073ffffffffffffffffffffffffffffffffffffffff166002600084815260200190815260200160002060009054906101000a900473ffffffffffffffffffffffffffffffffffffffff1673ffffffffffffffffffffffffffffffffffffffff1614159050919050565b61156183838361186f565b505050565b505050565b6115758383611983565b61158260008484846115ef565b6115c1576040517f08c379a00000000000000000000000000000000000000000000000000000000081526004016115b890612e45565b60405180910390fd5b505050565b60008151905060006a636f6e736f6c652e6c6f679050602083016000808483855afa5050505050565b60006116108473ffffffffffffffffffffffffffffffffffffffff16611b5d565b15611779578373ffffffffffffffffffffffffffffffffffffffff1663150b7a02611639610c1a565b8786866040518563ffffffff1660e01b815260040161165b9493929190612f1a565b602060405180830381600087803b15801561167557600080fd5b505af19250505080156116a657506040513d601f19601f820116820180604052508101906116a39190612f7b565b60015b611729573d80600081146116d6576040519150601f19603f3d011682016040523d82523d6000602084013e6116db565b606091505b50600081511415611721576040517f08c379a000000000000000000000000000000000000000000000000000000000815260040161171890612e45565b60405180910390fd5b805181602001fd5b63150b7a0260e01b7bffffffffffffffffffffffffffffffffffffffffffffffffffffffff1916817bffffffffffffffffffffffffffffffffffffffffffffffffffffffff19161491505061177e565b600190505b949350505050565b606060405180602001604052806000815250905090565b60606117a882610bcf565b60006117b2611786565b905060008151116117d257604051806020016040528060008152506117fd565b806117dc84611b80565b6040516020016117ed929190612ea1565b6040516020818303038152906040525b915050919050565b60007f01ffc9a7000000000000000000000000000000000000000000000000000000007bffffffffffffffffffffffffffffffffffffffffffffffffffffffff1916827bffffffffffffffffffffffffffffffffffffffffffffffffffffffff1916149050919050565b61187a838383611ce1565b600073ffffffffffffffffffffffffffffffffffffffff168373ffffffffffffffffffffffffffffffffffffffff1614156118bd576118b881611ce6565b6118fc565b8173ffffffffffffffffffffffffffffffffffffffff168373ffffffffffffffffffffffffffffffffffffffff16146118fb576118fa8382611d2f565b5b5b600073ffffffffffffffffffffffffffffffffffffffff168273ffffffffffffffffffffffffffffffffffffffff16141561193f5761193a81611e9c565b61197e565b8273ffffffffffffffffffffffffffffffffffffffff168273ffffffffffffffffffffffffffffffffffffffff161461197d5761197c8282611f6d565b5b5b505050565b600073ffffffffffffffffffffffffffffffffffffffff168273ffffffffffffffffffffffffffffffffffffffff1614156119f3576040517f08c379a00000000000000000000000000000000000000000000000000000000081526004016119ea90612ff4565b60405180910390fd5b6119fc816114ea565b15611a3c576040517f08c379a0000000000000000000000000000000000000000000000000000000008152600401611a3390613060565b60405180910390fd5b611a4860008383611556565b6001600360008473ffffffffffffffffffffffffffffffffffffffff1673ffffffffffffffffffffffffffffffffffffffff1681526020019081526020016000206000828254611a989190612c41565b92505081905550816002600083815260200190815260200160002060006101000a81548173ffffffffffffffffffffffffffffffffffffffff021916908373ffffffffffffffffffffffffffffffffffffffff160217905550808273ffffffffffffffffffffffffffffffffffffffff16600073ffffffffffffffffffffffffffffffffffffffff167fddf252ad1be2c89b69c2b068fc378daa952ba7f163c4a11628f55a4df523b3ef60405160405180910390a4611b5960008383611566565b5050565b6000808273ffffffffffffffffffffffffffffffffffffffff163b119050919050565b60606000821415611bc8576040518060400160405280600181526020017f30000000000000000000000000000000000000000000000000000000000000008152509050611cdc565b600082905060005b60008214611bfa578080611be390613080565b915050600a82611bf391906130f8565b9150611bd0565b60008167ffffffffffffffff811115611c1657611c15612464565b5b6040519080825280601f01601f191660200182016040528015611c485781602001600182028036833780820191505090505b5090505b60008514611cd557600182611c619190612c0d565b9150600a85611c709190613129565b6030611c7c9190612c41565b60f81b818381518110611c9257611c9161298d565b5b60200101907effffffffffffffffffffffffffffffffffffffffffffffffffffffffffffff1916908160001a905350600a85611cce91906130f8565b9450611c4c565b8093505050505b919050565b505050565b600980549050600a600083815260200190815260200160002081905550600981908060018154018082558091505060019003906000526020600020016000909190919091505550565b60006001611d3c84610812565b611d469190612c0d565b9050600060086000848152602001908152602001600020549050818114611e2b576000600760008673ffffffffffffffffffffffffffffffffffffffff1673ffffffffffffffffffffffffffffffffffffffff168152602001908152602001600020600084815260200190815260200160002054905080600760008773ffffffffffffffffffffffffffffffffffffffff1673ffffffffffffffffffffffffffffffffffffffff168152602001908152602001600020600084815260200190815260200160002081905550816008600083815260200190815260200160002081905550505b6008600084815260200190815260200160002060009055600760008573ffffffffffffffffffffffffffffffffffffffff1673ffffffffffffffffffffffffffffffffffffffff16815260200190815260200160002060008381526020019081526020016000206000905550505050565b60006001600980549050611eb09190612c0d565b90506000600a6000848152602001908152602001600020549050600060098381548110611ee057611edf61298d565b5b906000526020600020015490508060098381548110611f0257611f0161298d565b5b906000526020600020018190555081600a600083815260200190815260200160002081905550600a6000858152602001908152602001600020600090556009805480611f5157611f5061315a565b5b6001900381819060005260206000200160009055905550505050565b6000611f7883610812565b905081600760008573ffffffffffffffffffffffffffffffffffffffff1673ffffffffffffffffffffffffffffffffffffffff168152602001908152602001600020600083815260200190815260200160002081905550806008600084815260200190815260200160002081905550505050565b828054611ff890612681565b90600052602060002090601f01602090048101928261201a5760008555612061565b82601f1061203357805160ff1916838001178555612061565b82800160010185558215612061579182015b82811115612060578251825591602001919060010190612045565b5b50905061206e9190612072565b5090565b5b8082111561208b576000816000905550600101612073565b5090565b6000604051905090565b600080fd5b600080fd5b60007fffffffff0000000000000000000000000000000000000000000000000000000082169050919050565b6120d8816120a3565b81146120e357600080fd5b50565b6000813590506120f5816120cf565b92915050565b60006020828403121561211157612110612099565b5b600061211f848285016120e6565b91505092915050565b60008115159050919050565b61213d81612128565b82525050565b60006020820190506121586000830184612134565b92915050565b600081519050919050565b600082825260208201905092915050565b60005b8381101561219857808201518184015260208101905061217d565b838111156121a7576000848401525b50505050565b6000601f19601f8301169050919050565b60006121c98261215e565b6121d38185612169565b93506121e381856020860161217a565b6121ec816121ad565b840191505092915050565b6000602082019050818103600083015261221181846121be565b905092915050565b6000819050919050565b61222c81612219565b811461223757600080fd5b50565b60008135905061224981612223565b92915050565b60006020828403121561226557612264612099565b5b60006122738482850161223a565b91505092915050565b600073ffffffffffffffffffffffffffffffffffffffff82169050919050565b60006122a78261227c565b9050919050565b6122b78161229c565b82525050565b60006020820190506122d260008301846122ae565b92915050565b6122e18161229c565b81146122ec57600080fd5b50565b6000813590506122fe816122d8565b92915050565b6000806040838503121561231b5761231a612099565b5b6000612329858286016122ef565b925050602061233a8582860161223a565b9150509250929050565b61234d81612219565b82525050565b60006020820190506123686000830184612344565b92915050565b60008060006060848603121561238757612386612099565b5b6000612395868287016122ef565b93505060206123a6868287016122ef565b92505060406123b78682870161223a565b9150509250925092565b6000602082840312156123d7576123d6612099565b5b60006123e5848285016122ef565b91505092915050565b6123f781612128565b811461240257600080fd5b50565b600081359050612414816123ee565b92915050565b6000806040838503121561243157612430612099565b5b600061243f858286016122ef565b925050602061245085828601612405565b9150509250929050565b600080fd5b600080fd5b7f4e487b7100000000000000000000000000000000000000000000000000000000600052604160045260246000fd5b61249c826121ad565b810181811067ffffffffffffffff821117156124bb576124ba612464565b5b80604052505050565b60006124ce61208f565b90506124da8282612493565b919050565b600067ffffffffffffffff8211156124fa576124f9612464565b5b612503826121ad565b9050602081019050919050565b82818337600083830152505050565b600061253261252d846124df565b6124c4565b90508281526020810184848401111561254e5761254d61245f565b5b612559848285612510565b509392505050565b600082601f8301126125765761257561245a565b5b813561258684826020860161251f565b91505092915050565b600080600080608085870312156125a9576125a8612099565b5b60006125b7878288016122ef565b94505060206125c8878288016122ef565b93505060406125d98782880161223a565b925050606085013567ffffffffffffffff8111156125fa576125f961209e565b5b61260687828801612561565b91505092959194509250565b6000806040838503121561262957612628612099565b5b6000612637858286016122ef565b9250506020612648858286016122ef565b9150509250929050565b7f4e487b7100000000000000000000000000000000000000000000000000000000600052602260045260246000fd5b6000600282049050600182168061269957607f821691505b602082108114156126ad576126ac612652565b5b50919050565b7f4552433732313a20617070726f76616c20746f2063757272656e74206f776e6560008201527f7200000000000000000000000000000000000000000000000000000000000000602082015250565b600061270f602183612169565b915061271a826126b3565b604082019050919050565b6000602082019050818103600083015261273e81612702565b9050919050565b7f4552433732313a20617070726f76652063616c6c6572206973206e6f7420746f60008201527f6b656e206f776e6572206e6f7220617070726f76656420666f7220616c6c0000602082015250565b60006127a1603e83612169565b91506127ac82612745565b604082019050919050565b600060208201905081810360008301526127d081612794565b9050919050565b7f4552433732313a2063616c6c6572206973206e6f7420746f6b656e206f776e6560008201527f72206e6f7220617070726f766564000000000000000000000000000000000000602082015250565b6000612833602e83612169565b915061283e826127d7565b604082019050919050565b6000602082019050818103600083015261286281612826565b9050919050565b7f455243373231456e756d657261626c653a206f776e657220696e646578206f7560008201527f74206f6620626f756e6473000000000000000000000000000000000000000000602082015250565b60006128c5602b83612169565b91506128d082612869565b604082019050919050565b600060208201905081810360008301526128f4816128b8565b9050919050565b7f455243373231456e756d657261626c653a20676c6f62616c20696e646578206f60008201527f7574206f6620626f756e64730000000000000000000000000000000000000000602082015250565b6000612957602c83612169565b9150612962826128fb565b604082019050919050565b600060208201905081810360008301526129868161294a565b9050919050565b7f4e487b7100000000000000000000000000000000000000000000000000000000600052603260045260246000fd5b7f4552433732313a20696e76616c696420746f6b656e2049440000000000000000600082015250565b60006129f2601883612169565b91506129fd826129bc565b602082019050919050565b60006020820190508181036000830152612a21816129e5565b9050919050565b7f4552433732313a2061646472657373207a65726f206973206e6f74206120766160008201527f6c6964206f776e65720000000000000000000000000000000000000000000000602082015250565b6000612a84602983612169565b9150612a8f82612a28565b604082019050919050565b60006020820190508181036000830152612ab381612a77565b9050919050565b7f4552433732313a207472616e736665722066726f6d20696e636f72726563742060008201527f6f776e6572000000000000000000000000000000000000000000000000000000602082015250565b6000612b16602583612169565b9150612b2182612aba565b604082019050919050565b60006020820190508181036000830152612b4581612b09565b9050919050565b7f4552433732313a207472616e7366657220746f20746865207a65726f2061646460008201527f7265737300000000000000000000000000000000000000000000000000000000602082015250565b6000612ba8602483612169565b9150612bb382612b4c565b604082019050919050565b60006020820190508181036000830152612bd781612b9b565b9050919050565b7f4e487b7100000000000000000000000000000000000000000000000000000000600052601160045260246000fd5b6000612c1882612219565b9150612c2383612219565b925082821015612c3657612c35612bde565b5b828203905092915050565b6000612c4c82612219565b9150612c5783612219565b9250827fffffffffffffffffffffffffffffffffffffffffffffffffffffffffffffffff03821115612c8c57612c8b612bde565b5b828201905092915050565b7f45524337323155524953746f726167653a2055524920736574206f66206e6f6e60008201527f6578697374656e7420746f6b656e000000000000000000000000000000000000602082015250565b6000612cf3602e83612169565b9150612cfe82612c97565b604082019050919050565b60006020820190508181036000830152612d2281612ce6565b9050919050565b60006060820190508181036000830152612d4381866121be565b9050612d526020830185612344565b612d5f60408301846122ae565b949350505050565b7f4552433732313a20617070726f766520746f2063616c6c657200000000000000600082015250565b6000612d9d601983612169565b9150612da882612d67565b602082019050919050565b60006020820190508181036000830152612dcc81612d90565b9050919050565b7f4552433732313a207472616e7366657220746f206e6f6e20455243373231526560008201527f63656976657220696d706c656d656e7465720000000000000000000000000000602082015250565b6000612e2f603283612169565b9150612e3a82612dd3565b604082019050919050565b60006020820190508181036000830152612e5e81612e22565b9050919050565b600081905092915050565b6000612e7b8261215e565b612e858185612e65565b9350612e9581856020860161217a565b80840191505092915050565b6000612ead8285612e70565b9150612eb98284612e70565b91508190509392505050565b600081519050919050565b600082825260208201905092915050565b6000612eec82612ec5565b612ef68185612ed0565b9350612f0681856020860161217a565b612f0f816121ad565b840191505092915050565b6000608082019050612f2f60008301876122ae565b612f3c60208301866122ae565b612f496040830185612344565b8181036060830152612f5b8184612ee1565b905095945050505050565b600081519050612f75816120cf565b92915050565b600060208284031215612f9157612f90612099565b5b6000612f9f84828501612f66565b91505092915050565b7f4552433732313a206d696e7420746f20746865207a65726f2061646472657373600082015250565b6000612fde602083612169565b9150612fe982612fa8565b602082019050919050565b6000602082019050818103600083015261300d81612fd1565b9050919050565b7f4552433732313a20746f6b656e20616c7265616479206d696e74656400000000600082015250565b600061304a601c83612169565b915061305582613014565b602082019050919050565b600060208201905081810360008301526130798161303d565b9050919050565b600061308b82612219565b91507fffffffffffffffffffffffffffffffffffffffffffffffffffffffffffffffff8214156130be576130bd612bde565b5b600182019050919050565b7f4e487b7100000000000000000000000000000000000000000000000000000000600052601260045260246000fd5b600061310382612219565b915061310e83612219565b92508261311e5761311d6130c9565b5b828204905092915050565b600061313482612219565b915061313f83612219565b92508261314f5761314e6130c9565b5b828206905092915050565b7f4e487b7100000000000000000000000000000000000000000000000000000000600052603160045260246000fdfe68747470733a2f2f617277656176652e6e65742f4f73716c6d46422d695f644e394a31675f6a53765664736f5258504a42337578397574445a376973306b4da2646970667358221220e7210d52ec99ac9e728aa104c0b7022857009e8900b84c6b4b9c6344902778c664736f6c63430008090033",
  "linkReferences": {},
  "deployedLinkReferences": {}
}