{
  "_format": "hh-sol-artifact-1",
  "contractName": "NFTMarketplace",
  "sourceName": "contracts/Marketplace.sol",
  "abi": [
    {
      "inputs": [
        {
          "internalType": "uint256",
          "name": "_listingPrice",
          "type": "uint256"
        }
      ],
      "stateMutability": "nonpayable",
      "type": "constructor"
    },
    {
      "anonymous": false,
      "inputs": [
        {
          "indexed": true,
          "internalType": "uint256",
          "name": "id",
          "type": "uint256"
        },
        {
          "indexed": true,
          "internalType": "uint256",
          "name": "tokenId",
          "type": "uint256"
        },
        {
          "indexed": true,
          "internalType": "address",
          "name": "tokenAddress",
          "type": "address"
        },
        {
          "indexed": false,
          "internalType": "address",
          "name": "seller",
          "type": "address"
        },
        {
          "indexed": false,
          "internalType": "uint256",
          "name": "price",
          "type": "uint256"
        }
      ],
      "name": "ListingItemCreated",
      "type": "event"
    },
    {
      "anonymous": false,
      "inputs": [
        {
          "indexed": true,
          "internalType": "address",
          "name": "previousOwner",
          "type": "address"
        },
        {
          "indexed": true,
          "internalType": "address",
          "name": "newOwner",
          "type": "address"
        }
      ],
      "name": "OwnershipTransferred",
      "type": "event"
    },
    {
      "inputs": [
        {
          "internalType": "uint256",
          "name": "listingId",
          "type": "uint256"
        }
      ],
      "name": "buyItem",
      "outputs": [],
      "stateMutability": "payable",
      "type": "function"
    },
    {
      "inputs": [
        {
          "internalType": "uint256",
          "name": "listingId",
          "type": "uint256"
        }
      ],
      "name": "cancelListing",
      "outputs": [],
      "stateMutability": "nonpayable",
      "type": "function"
    },
    {
      "inputs": [
        {
          "internalType": "uint256",
          "name": "listingId",
          "type": "uint256"
        }
      ],
      "name": "getItemPrice",
      "outputs": [
        {
          "internalType": "uint256",
          "name": "",
          "type": "uint256"
        }
      ],
      "stateMutability": "view",
      "type": "function"
    },
    {
      "inputs": [
        {
          "internalType": "uint256",
          "name": "offset",
          "type": "uint256"
        },
        {
          "internalType": "uint256",
          "name": "limit",
          "type": "uint256"
        }
      ],
      "name": "getListingItems",
      "outputs": [
        {
          "components": [
            {
              "internalType": "uint256",
              "name": "tokenId",
              "type": "uint256"
            },
            {
              "internalType": "address",
              "name": "tokenAddress",
              "type": "address"
            },
            {
              "internalType": "address payable",
              "name": "seller",
              "type": "address"
            },
            {
              "internalType": "uint256",
              "name": "price",
              "type": "uint256"
            },
            {
              "internalType": "bool",
              "name": "isSold",
              "type": "bool"
            }
          ],
          "internalType": "struct NFTMarketplace.ListingItem[]",
          "name": "",
          "type": "tuple[]"
        }
      ],
      "stateMutability": "view",
      "type": "function"
    },
    {
      "inputs": [],
      "name": "getTotalItems",
      "outputs": [
        {
          "internalType": "uint256",
          "name": "",
          "type": "uint256"
        }
      ],
      "stateMutability": "view",
      "type": "function"
    },
    {
      "inputs": [],
      "name": "getTotalUnsoldItems",
      "outputs": [
        {
          "internalType": "uint256",
          "name": "",
          "type": "uint256"
        }
      ],
      "stateMutability": "view",
      "type": "function"
    },
    {
      "inputs": [
        {
          "internalType": "uint256",
          "name": "offset",
          "type": "uint256"
        },
        {
          "internalType": "uint256",
          "name": "limit",
          "type": "uint256"
        }
      ],
      "name": "getUnsoldItems",
      "outputs": [
        {
          "components": [
            {
              "internalType": "uint256",
              "name": "tokenId",
              "type": "uint256"
            },
            {
              "internalType": "address",
              "name": "tokenAddress",
              "type": "address"
            },
            {
              "internalType": "address payable",
              "name": "seller",
              "type": "address"
            },
            {
              "internalType": "uint256",
              "name": "price",
              "type": "uint256"
            },
            {
              "internalType": "bool",
              "name": "isSold",
              "type": "bool"
            }
          ],
          "internalType": "struct NFTMarketplace.ListingItem[]",
          "name": "",
          "type": "tuple[]"
        },
        {
          "internalType": "uint256[]",
          "name": "",
          "type": "uint256[]"
        }
      ],
      "stateMutability": "view",
      "type": "function"
    },
    {
      "inputs": [
        {
          "internalType": "address",
          "name": "tokenAddress",
          "type": "address"
        },
        {
          "internalType": "uint256",
          "name": "tokenId",
          "type": "uint256"
        },
        {
          "internalType": "uint256",
          "name": "price",
          "type": "uint256"
        }
      ],
      "name": "listItem",
      "outputs": [
        {
          "internalType": "uint256",
          "name": "",
          "type": "uint256"
        }
      ],
      "stateMutability": "payable",
      "type": "function"
    },
    {
      "inputs": [
        {
          "internalType": "uint256",
          "name": "",
          "type": "uint256"
        }
      ],
      "name": "listingItems",
      "outputs": [
        {
          "internalType": "uint256",
          "name": "tokenId",
          "type": "uint256"
        },
        {
          "internalType": "address",
          "name": "tokenAddress",
          "type": "address"
        },
        {
          "internalType": "address payable",
          "name": "seller",
          "type": "address"
        },
        {
          "internalType": "uint256",
          "name": "price",
          "type": "uint256"
        },
        {
          "internalType": "bool",
          "name": "isSold",
          "type": "bool"
        }
      ],
      "stateMutability": "view",
      "type": "function"
    },
    {
      "inputs": [],
      "name": "listingPrice",
      "outputs": [
        {
          "internalType": "uint256",
          "name": "",
          "type": "uint256"
        }
      ],
      "stateMutability": "view",
      "type": "function"
    },
    {
      "inputs": [],
      "name": "owner",
      "outputs": [
        {
          "internalType": "address",
          "name": "",
          "type": "address"
        }
      ],
      "stateMutability": "view",
      "type": "function"
    },
    {
      "inputs": [],
      "name": "renounceOwnership",
      "outputs": [],
      "stateMutability": "nonpayable",
      "type": "function"
    },
    {
      "inputs": [],
      "name": "totalListingItems",
      "outputs": [
        {
          "internalType": "uint256",
          "name": "",
          "type": "uint256"
        }
      ],
      "stateMutability": "view",
      "type": "function"
    },
    {
      "inputs": [
        {
          "internalType": "address",
          "name": "newOwner",
          "type": "address"
        }
      ],
      "name": "transferOwnership",
      "outputs": [],
      "stateMutability": "nonpayable",
      "type": "function"
    }
  ],
  "bytecode": "0x60806040523480156200001157600080fd5b50604051620022b0380380620022b0833981810160405281019062000037919062000178565b620000576200004b6200006c60201b60201c565b6200007460201b60201c565b600180819055508060028190555050620001aa565b600033905090565b60008060009054906101000a900473ffffffffffffffffffffffffffffffffffffffff169050816000806101000a81548173ffffffffffffffffffffffffffffffffffffffff021916908373ffffffffffffffffffffffffffffffffffffffff1602179055508173ffffffffffffffffffffffffffffffffffffffff168173ffffffffffffffffffffffffffffffffffffffff167f8be0079c531659141344cd1fd0a4f28419497f9722a3daafe3b4186f6b6457e060405160405180910390a35050565b600080fd5b6000819050919050565b62000152816200013d565b81146200015e57600080fd5b50565b600081519050620001728162000147565b92915050565b60006020828403121562000191576200019062000138565b5b6000620001a18482850162000161565b91505092915050565b6120f680620001ba6000396000f3fe6080604052600436106100dd5760003560e01c8063be03120d1161007f578063e20f807b11610059578063e20f807b146102cc578063e59b9670146102f7578063e7fb74c714610322578063f2fde38b1461033e576100dd565b8063be03120d14610226578063c78f19f914610263578063cfc621361461028e576100dd565b80634c4df870116100bb5780634c4df87014610177578063715018a6146101b457806389bfd38f146101cb5780638da5cb5b146101fb576100dd565b8063305a67a8146100e2578063310aac691461010b57806331e3a12e14610136575b600080fd5b3480156100ee57600080fd5b506101096004803603810190610104919061152a565b610367565b005b34801561011757600080fd5b5061012061058b565b60405161012d9190611566565b60405180910390f35b34801561014257600080fd5b5061015d6004803603810190610158919061152a565b61059c565b60405161016e9594939291906115fe565b60405180910390f35b34801561018357600080fd5b5061019e6004803603810190610199919061152a565b61061f565b6040516101ab9190611566565b60405180910390f35b3480156101c057600080fd5b506101c961063f565b005b6101e560048036038101906101e0919061167d565b610653565b6040516101f29190611566565b60405180910390f35b34801561020757600080fd5b50610210610982565b60405161021d91906116d0565b60405180910390f35b34801561023257600080fd5b5061024d600480360381019061024891906116eb565b6109ab565b60405161025a919061187e565b60405180910390f35b34801561026f57600080fd5b50610278610c79565b6040516102859190611566565b60405180910390f35b34801561029a57600080fd5b506102b560048036038101906102b091906116eb565b610c7f565b6040516102c392919061194f565b60405180910390f35b3480156102d857600080fd5b506102e1610f6e565b6040516102ee9190611566565b60405180910390f35b34801561030357600080fd5b5061030c610f93565b6040516103199190611566565b60405180910390f35b61033c6004803603810190610337919061152a565b610fa4565b005b34801561034a57600080fd5b5061036560048036038101906103609190611986565b6111db565b005b6000600560008381526020019081526020016000209050600015158160040160009054906101000a900460ff161515146103d6576040517f08c379a00000000000000000000000000000000000000000000000000000000081526004016103cd90611a10565b60405180910390fd5b3373ffffffffffffffffffffffffffffffffffffffff168160020160009054906101000a900473ffffffffffffffffffffffffffffffffffffffff1673ffffffffffffffffffffffffffffffffffffffff1614610468576040517f08c379a000000000000000000000000000000000000000000000000000000000815260040161045f90611a7c565b60405180910390fd5b8060010160009054906101000a900473ffffffffffffffffffffffffffffffffffffffff1673ffffffffffffffffffffffffffffffffffffffff166323b872dd303384600001546040518463ffffffff1660e01b81526004016104cd93929190611a9c565b600060405180830381600087803b1580156104e757600080fd5b505af11580156104fb573d6000803e3d6000fd5b50505050600560008381526020019081526020016000206000808201600090556001820160006101000a81549073ffffffffffffffffffffffffffffffffffffffff02191690556002820160006101000a81549073ffffffffffffffffffffffffffffffffffffffff021916905560038201600090556004820160006101000a81549060ff021916905550505050565b6000610597600361125f565b905090565b60056020528060005260406000206000915090508060000154908060010160009054906101000a900473ffffffffffffffffffffffffffffffffffffffff16908060020160009054906101000a900473ffffffffffffffffffffffffffffffffffffffff16908060030154908060040160009054906101000a900460ff16905085565b600060056000838152602001908152602001600020600301549050919050565b61064761126d565b61065160006112eb565b565b60006002600154141561069b576040517f08c379a000000000000000000000000000000000000000000000000000000000815260040161069290611b1f565b60405180910390fd5b6002600181905550600082116106e6576040517f08c379a00000000000000000000000000000000000000000000000000000000081526004016106dd90611b8b565b60405180910390fd5b600254341461072a576040517f08c379a000000000000000000000000000000000000000000000000000000000815260040161072190611c1d565b60405180910390fd5b8373ffffffffffffffffffffffffffffffffffffffff166323b872dd3330866040518463ffffffff1660e01b815260040161076793929190611a9c565b600060405180830381600087803b15801561078157600080fd5b505af1158015610795573d6000803e3d6000fd5b5050505060006107a5600361125f565b90506040518060a001604052808581526020018673ffffffffffffffffffffffffffffffffffffffff1681526020013373ffffffffffffffffffffffffffffffffffffffff16815260200184815260200160001515815250600560008381526020019081526020016000206000820151816000015560208201518160010160006101000a81548173ffffffffffffffffffffffffffffffffffffffff021916908373ffffffffffffffffffffffffffffffffffffffff16021790555060408201518160020160006101000a81548173ffffffffffffffffffffffffffffffffffffffff021916908373ffffffffffffffffffffffffffffffffffffffff1602179055506060820151816003015560808201518160040160006101000a81548160ff0219169083151502179055509050506109146040518060400160405280601781526020017f4c697374696e67206974656d2077697468206964202573000000000000000000815250826113af565b8473ffffffffffffffffffffffffffffffffffffffff1684827ffe4c99c112bfda597518df080ef7b925100c2be054783fd9cceb6ef44648d3a3338760405161095e929190611c3d565b60405180910390a4610970600361144b565b80915050600180819055509392505050565b60008060009054906101000a900473ffffffffffffffffffffffffffffffffffffffff16905090565b606060008310156109f1576040517f08c379a00000000000000000000000000000000000000000000000000000000081526004016109e890611cb2565b60405180910390fd5b60008211610a34576040517f08c379a0000000000000000000000000000000000000000000000000000000008152600401610a2b90611d1e565b60405180910390fd5b6000610a40600361125f565b8385610a4c9190611d6d565b11610a575782610a6d565b83610a62600361125f565b610a6c9190611dc3565b5b905060008111610ad457600067ffffffffffffffff811115610a9257610a91611df7565b5b604051908082528060200260200182016040528015610acb57816020015b610ab8611492565b815260200190600190039081610ab05790505b50915050610c73565b60008167ffffffffffffffff811115610af057610aef611df7565b5b604051908082528060200260200182016040528015610b2957816020015b610b16611492565b815260200190600190039081610b0e5790505b50905060005b82811015610c6c57600560008783610b479190611d6d565b81526020019081526020016000206040518060a0016040529081600082015481526020016001820160009054906101000a900473ffffffffffffffffffffffffffffffffffffffff1673ffffffffffffffffffffffffffffffffffffffff1673ffffffffffffffffffffffffffffffffffffffff1681526020016002820160009054906101000a900473ffffffffffffffffffffffffffffffffffffffff1673ffffffffffffffffffffffffffffffffffffffff1673ffffffffffffffffffffffffffffffffffffffff168152602001600382015481526020016004820160009054906101000a900460ff161515151581525050828281518110610c4e57610c4d611e26565b5b60200260200101819052508080610c6490611e55565b915050610b2f565b5080925050505b92915050565b60025481565b6060806000841015610cc6576040517f08c379a0000000000000000000000000000000000000000000000000000000008152600401610cbd90611cb2565b60405180910390fd5b60008311610d09576040517f08c379a0000000000000000000000000000000000000000000000000000000008152600401610d0090611d1e565b60405180910390fd5b60008367ffffffffffffffff811115610d2557610d24611df7565b5b604051908082528060200260200182016040528015610d5e57816020015b610d4b611492565b815260200190600190039081610d435790505b50905060008467ffffffffffffffff811115610d7d57610d7c611df7565b5b604051908082528060200260200182016040528015610dab5781602001602082028036833780820191505090505b5090506000806000610dbd600361125f565b90505b808984610dcd9190611d6d565b108015610dd957508782105b15610f5c576000600560008b86610df09190611d6d565b81526020019081526020016000206040518060a0016040529081600082015481526020016001820160009054906101000a900473ffffffffffffffffffffffffffffffffffffffff1673ffffffffffffffffffffffffffffffffffffffff1673ffffffffffffffffffffffffffffffffffffffff1681526020016002820160009054906101000a900473ffffffffffffffffffffffffffffffffffffffff1673ffffffffffffffffffffffffffffffffffffffff1673ffffffffffffffffffffffffffffffffffffffff168152602001600382015481526020016004820160009054906101000a900460ff16151515158152505090508060800151610f485780868481518110610f0357610f02611e26565b5b60200260200101819052508984610f1a9190611d6d565b858481518110610f2d57610f2c611e26565b5b6020026020010181815250508280610f4490611e55565b9350505b8380610f5390611e55565b94505050610dc0565b84849650965050505050509250929050565b6000610f7a600461125f565b610f84600361125f565b610f8e9190611dc3565b905090565b6000610f9f600361125f565b905090565b60026001541415610fea576040517f08c379a0000000000000000000000000000000000000000000000000000000008152600401610fe190611b1f565b60405180910390fd5b60026001819055506000600560008381526020019081526020016000209050600015158160040160009054906101000a900460ff16151514611061576040517f08c379a000000000000000000000000000000000000000000000000000000000815260040161105890611a10565b60405180910390fd5b348160030154146110a7576040517f08c379a000000000000000000000000000000000000000000000000000000000815260040161109e90611eea565b60405180910390fd5b8060020160009054906101000a900473ffffffffffffffffffffffffffffffffffffffff1673ffffffffffffffffffffffffffffffffffffffff166108fc349081150290604051600060405180830381858888f19350505050158015611111573d6000803e3d6000fd5b508060010160009054906101000a900473ffffffffffffffffffffffffffffffffffffffff1673ffffffffffffffffffffffffffffffffffffffff166323b872dd303384600001546040518463ffffffff1660e01b815260040161117793929190611a9c565b600060405180830381600087803b15801561119157600080fd5b505af11580156111a5573d6000803e3d6000fd5b5050505060018160040160006101000a81548160ff0219169083151502179055506111d0600461144b565b506001808190555050565b6111e361126d565b600073ffffffffffffffffffffffffffffffffffffffff168173ffffffffffffffffffffffffffffffffffffffff161415611253576040517f08c379a000000000000000000000000000000000000000000000000000000000815260040161124a90611f7c565b60405180910390fd5b61125c816112eb565b50565b600081600001549050919050565b611275611461565b73ffffffffffffffffffffffffffffffffffffffff16611293610982565b73ffffffffffffffffffffffffffffffffffffffff16146112e9576040517f08c379a00000000000000000000000000000000000000000000000000000000081526004016112e090611fe8565b60405180910390fd5b565b60008060009054906101000a900473ffffffffffffffffffffffffffffffffffffffff169050816000806101000a81548173ffffffffffffffffffffffffffffffffffffffff021916908373ffffffffffffffffffffffffffffffffffffffff1602179055508173ffffffffffffffffffffffffffffffffffffffff168173ffffffffffffffffffffffffffffffffffffffff167f8be0079c531659141344cd1fd0a4f28419497f9722a3daafe3b4186f6b6457e060405160405180910390a35050565b61144782826040516024016113c5929190612090565b6040516020818303038152906040527fb60e72cc000000000000000000000000000000000000000000000000000000007bffffffffffffffffffffffffffffffffffffffffffffffffffffffff19166020820180517bffffffffffffffffffffffffffffffffffffffffffffffffffffffff8381831617835250505050611469565b5050565b6001816000016000828254019250508190555050565b600033905090565b60008151905060006a636f6e736f6c652e6c6f679050602083016000808483855afa5050505050565b6040518060a0016040528060008152602001600073ffffffffffffffffffffffffffffffffffffffff168152602001600073ffffffffffffffffffffffffffffffffffffffff168152602001600081526020016000151581525090565b600080fd5b6000819050919050565b611507816114f4565b811461151257600080fd5b50565b600081359050611524816114fe565b92915050565b6000602082840312156115405761153f6114ef565b5b600061154e84828501611515565b91505092915050565b611560816114f4565b82525050565b600060208201905061157b6000830184611557565b92915050565b600073ffffffffffffffffffffffffffffffffffffffff82169050919050565b60006115ac82611581565b9050919050565b6115bc816115a1565b82525050565b60006115cd82611581565b9050919050565b6115dd816115c2565b82525050565b60008115159050919050565b6115f8816115e3565b82525050565b600060a0820190506116136000830188611557565b61162060208301876115b3565b61162d60408301866115d4565b61163a6060830185611557565b61164760808301846115ef565b9695505050505050565b61165a816115a1565b811461166557600080fd5b50565b60008135905061167781611651565b92915050565b600080600060608486031215611696576116956114ef565b5b60006116a486828701611668565b93505060206116b586828701611515565b92505060406116c686828701611515565b9150509250925092565b60006020820190506116e560008301846115b3565b92915050565b60008060408385031215611702576117016114ef565b5b600061171085828601611515565b925050602061172185828601611515565b9150509250929050565b600081519050919050565b600082825260208201905092915050565b6000819050602082019050919050565b611760816114f4565b82525050565b61176f816115a1565b82525050565b61177e816115c2565b82525050565b61178d816115e3565b82525050565b60a0820160008201516117a96000850182611757565b5060208201516117bc6020850182611766565b5060408201516117cf6040850182611775565b5060608201516117e26060850182611757565b5060808201516117f56080850182611784565b50505050565b60006118078383611793565b60a08301905092915050565b6000602082019050919050565b600061182b8261172b565b6118358185611736565b935061184083611747565b8060005b8381101561187157815161185888826117fb565b975061186383611813565b925050600181019050611844565b5085935050505092915050565b600060208201905081810360008301526118988184611820565b905092915050565b600081519050919050565b600082825260208201905092915050565b6000819050602082019050919050565b60006118d88383611757565b60208301905092915050565b6000602082019050919050565b60006118fc826118a0565b61190681856118ab565b9350611911836118bc565b8060005b8381101561194257815161192988826118cc565b9750611934836118e4565b925050600181019050611915565b5085935050505092915050565b600060408201905081810360008301526119698185611820565b9050818103602083015261197d81846118f1565b90509392505050565b60006020828403121561199c5761199b6114ef565b5b60006119aa84828501611668565b91505092915050565b600082825260208201905092915050565b7f4974656d20697320616c726561647920736f6c64000000000000000000000000600082015250565b60006119fa6014836119b3565b9150611a05826119c4565b602082019050919050565b60006020820190508181036000830152611a29816119ed565b9050919050565b7f4f6e6c792073656c6c65722063616e2063616e63656c206c697374696e670000600082015250565b6000611a66601e836119b3565b9150611a7182611a30565b602082019050919050565b60006020820190508181036000830152611a9581611a59565b9050919050565b6000606082019050611ab160008301866115b3565b611abe60208301856115b3565b611acb6040830184611557565b949350505050565b7f5265656e7472616e637947756172643a207265656e7472616e742063616c6c00600082015250565b6000611b09601f836119b3565b9150611b1482611ad3565b602082019050919050565b60006020820190508181036000830152611b3881611afc565b9050919050565b7f5072696365206d7573742062652067726561746572207468616e203000000000600082015250565b6000611b75601c836119b3565b9150611b8082611b3f565b602082019050919050565b60006020820190508181036000830152611ba481611b68565b9050919050565b7f5072696365206d75737420626520657175616c20746f206c697374696e67207060008201527f7269636500000000000000000000000000000000000000000000000000000000602082015250565b6000611c076024836119b3565b9150611c1282611bab565b604082019050919050565b60006020820190508181036000830152611c3681611bfa565b9050919050565b6000604082019050611c5260008301856115b3565b611c5f6020830184611557565b9392505050565b7f6f6666736574206d7573742062652067726561746572207468616e2030000000600082015250565b6000611c9c601d836119b3565b9150611ca782611c66565b602082019050919050565b60006020820190508181036000830152611ccb81611c8f565b9050919050565b7f6c696d6974206d7573742062652067726561746572207468616e203000000000600082015250565b6000611d08601c836119b3565b9150611d1382611cd2565b602082019050919050565b60006020820190508181036000830152611d3781611cfb565b9050919050565b7f4e487b7100000000000000000000000000000000000000000000000000000000600052601160045260246000fd5b6000611d78826114f4565b9150611d83836114f4565b9250827fffffffffffffffffffffffffffffffffffffffffffffffffffffffffffffffff03821115611db857611db7611d3e565b5b828201905092915050565b6000611dce826114f4565b9150611dd9836114f4565b925082821015611dec57611deb611d3e565b5b828203905092915050565b7f4e487b7100000000000000000000000000000000000000000000000000000000600052604160045260246000fd5b7f4e487b7100000000000000000000000000000000000000000000000000000000600052603260045260246000fd5b6000611e60826114f4565b91507fffffffffffffffffffffffffffffffffffffffffffffffffffffffffffffffff821415611e9357611e92611d3e565b5b600182019050919050565b7f5072696365206973206e6f7420636f7272656374000000000000000000000000600082015250565b6000611ed46014836119b3565b9150611edf82611e9e565b602082019050919050565b60006020820190508181036000830152611f0381611ec7565b9050919050565b7f4f776e61626c653a206e6577206f776e657220697320746865207a65726f206160008201527f6464726573730000000000000000000000000000000000000000000000000000602082015250565b6000611f666026836119b3565b9150611f7182611f0a565b604082019050919050565b60006020820190508181036000830152611f9581611f59565b9050919050565b7f4f776e61626c653a2063616c6c6572206973206e6f7420746865206f776e6572600082015250565b6000611fd26020836119b3565b9150611fdd82611f9c565b602082019050919050565b6000602082019050818103600083015261200181611fc5565b9050919050565b600081519050919050565b60005b83811015612031578082015181840152602081019050612016565b83811115612040576000848401525b50505050565b6000601f19601f8301169050919050565b600061206282612008565b61206c81856119b3565b935061207c818560208601612013565b61208581612046565b840191505092915050565b600060408201905081810360008301526120aa8185612057565b90506120b96020830184611557565b939250505056fea2646970667358221220410779238f98858e7b70cf56eaba83d75e699c5d7a08bc3d200b9b2e05c4e9b264736f6c63430008090033",
  "linkReferences": {},
  "deployedLinkReferences": {}
}